:020000040000FA
:10000000B869002059040000610400006304000086
:10001000650400006704000069040000000000009F
:100020000000000000000000000000006B04000061
:1000300023040000000000006F04000071040000B1
:100040007304000073040000690D000073040000D5
:1000500073040000730400007304000073040000C4
:1000600073040000730400007304000073040000B4
:1000700073040000730400007304000073040000A4
:100080007304000073040000730400007304000094
:100090007304000073040000730400007304000084
:1000A0007304000073040000730400007304000074
:1000B0007304000073040000000000000000000052
:1000C0007304000073040000730400007304000054
:1000D0007304000073040000730400007304000044
:1000E00073040000730400007304000000000000AB
:1000F0000000000073040000000000007304000012
:1001000000000000000000000000000000000000EF
:1001100000000000000000000000000000000000DF
:1001200000000000000000000000000000000000CF
:1001300000000000000000000000000000000000BF
:1001400000000000000000000000000000000000AF
:10015000000000000000000000000000000000009F
:10016000000000000000000000000000000000008F
:10017000000000000000000000000000000000007F
:10018000000000000000000000000000000000006F
:10019000000000000000000000000000000000005F
:1001A000000000000000000000000000000000004F
:1001B000000000000000000000000000000000003F
:1001C000000000000000000000000000000000002F
:1001D000000000000000000000000000000000001F
:1001E000000000000000000000000000000000000F
:1001F00000000000000000000000000000000000FF
:10020000DFF80CD000F0D2FB004800479D5B0000F7
:10021000B869002030B4044654E8000F0D4644E8A5
:100220000053002BF8D1156030BC704730B4044641
:1002300054E8000F40EA010544E80053002BF7D1D1
:10024000156030BC704730B4044654E8000F00EA33
:10025000010544E80053002BF7D1156030BC70470E
:1002600030B4044654E8000F80EA010544E8005326
:10027000002BF7D1156030BC704730B4044654E809
:10028000000F00EB010544E80053002BF7D1156087
:1002900030BC704730B4044654E8000FA0EB0105B1
:1002A00044E80053002BF7D1156030BC704770B4A0
:1002B00004464FF0000054E8006F0D68AE4207BFDF
:1002C00044E80023012044E800630E60002B1CBFBB
:1002D0000020F0E770BC704730B4044654E8000FCB
:1002E00088422CBF451A054644E80053002BF5D13F
:1002F000156030BC704700008FB5DFF82C309E458C
:100300000FD0DFF828309E450BD0DFF824309E4513
:1003100007D0DFF820309E4503D0DFF81C309E4523
:10032000FFD005F045F88FBD5000000252000002DA
:1003300054000002550000025700000200BF00BF39
:1003400000BF00BF2DE90F50EFF3148010F0020F33
:100350000CBFEFF30880EFF30980002105F04EFA9F
:100360000546BDE80F50AF4600BF00BF00BF00BF4D
:100370002DE90F50EFF3148010F0020F0CBFEFF3D4
:100380000880EFF30980012105F038FA0546BDE841
:100390000F50284600BF00BF00BF00BF2DE90F501F
:1003A0001EF0040F0CBFEFF30880EFF30980022169
:1003B00005F024FABDE80F50704700BF00BF00BF32
:1003C00000BF2DE90F501EF0040F0CBFEFF30880A3
:1003D000EFF30980032105F011FABDE80F507047D3
:1003E00000BF00BF00BF00BF2DE90F501EF0040F7B
:1003F0000CBFEFF30880EFF30980042105F0FEF94C
:10040000BDE80F50704700BF00BF00BF00BF2DE91F
:100410000F5004F0A5FE0546BDE80F50AF468F46CD
:1004200070471EF0040F0CBFEFF30880EFF3098054
:1004300005F084B90FB40FBC01B5EFF3148010F0D0
:10044000020F0CBFEFF30880EFF30980EFF3088091
:1004500003F030F801BD0000064880470648004719
:10046000FEE7FEE7FEE7FEE7FEE7FEE7FEE7FEE764
:10047000FEE7FEE7850B0000010200002DE9F05FBA
:100480000546002092469B46884606468146402403
:100490001BE0284641464746224600F02FF85346C7
:1004A0005A46C01A914110D311461846224600F010
:1004B00016F82D1A67EB01084F462246012000214D
:1004C00000F00DF817EB00094E41201EA4F10104C5
:1004D000DFDC484631462A464346BDE8F09F202AE5
:1004E00004DB203A00FA02F1002070479140C2F18B
:1004F000200320FA03F3194390407047202A04DBBD
:10050000203A21FA02F00021704721FA02F3D0408C
:10051000C2F120029140084319467047202A06DBA9
:10052000CB17203A41FA02F043EAE07306E041FAC1
:1005300002F3D040C2F120029140084319467047AF
:10054000004870476488000040EA01039B0703D01D
:1005500009E008C9121F08C0042AFAD203E011F802
:10056000013B00F8013B521EF9D27047D2B201E0C4
:1005700000F8012B491EFBD270470022F6E710B5A8
:1005800013460A4604461946FFF7F0FF204610BD01
:10059000421C10F8011B0029FBD1801A704710B5CE
:1005A000002200E0521C835C8C5CA34201D1002B32
:1005B000F8D1D8B2E1B2401A10BD034611F8012BB0
:1005C00000F8012B002AF9D11846704710B54843AE
:1005D000044605F089FB002805D00021002C02D03C
:1005E000641E0155FAE710BD00F0004230F00040F3
:1005F0000AD0C10D01F56071C0F3160042EA015145
:10060000C20840071143704700200146704730B5CB
:100610000B46014600202022012409E021FA02F5C0
:100620009D4205D303FA02F5491B04FA02F528445A
:10063000151EA2F10102F1DC30BD2DE9FE4F80460E
:1006400081EA0300C00F0C46009021F0004123F026
:100650000045B8EB0200A94105D24046214690462C
:100660001C460B46024623F00040104347D0270D9E
:10067000C7F30A00C3F30A510290401A01904028C0
:100680006BDAC3F3130040F4801B0098924620B14C
:100690000023D2EB030A63EB0B0B01985946C0F120
:1006A00040025046FFF71BFF06460D46504659468E
:1006B000019AFFF733FF10EB08006141002487EA3D
:1006C000115284EAE7731A4340D0009A62B3019A48
:1006D000012A4FEA075215DC001B61EB02014FF0C3
:1006E000004202EA0752CDE90042001C41F58011A8
:1006F00032462B4600F07BF903B0BDE8F08F404650
:100700002146F9E7001B61EB0201001C41F5801353
:1007100000185B412018A2F5001747EB030140EADF
:10072000D570B6196D4111E06D084FEA360645EAFD
:10073000C0754FEA0752001B61EB0201001C41F536
:10074000801149084FEA30000019514132462B46CA
:1007500003B0BDE8F04F00F03BB900980122400023
:100760000023D0EB020263EBE073009821464FEACE
:10077000E074B8EB000061EB0401E9E783F00043AB
:100780005BE781F0004158E72DE9FE4F81EA030461
:1007900004F0004421F0004100944FF0000B23F0DE
:1007A000004350EA01045ED052EA03045BD0C3F375
:1007B0000A54C1F30A552C44A4F2F3340194A0FB6B
:1007C0000254C1F3130141F48011C3F3130343F442
:1007D000801301FB024400FB034E840A970A44EA9B
:1007E000815447EA8357A4FB076802958D0A05FBED
:1007F00007854FEA932C04FB0C542705029D4FEA12
:10080000065847EA1637B5EB08056EEB070C870E5E
:10081000920E47EA811742EA8312A7FB0201B6EB68
:100820000B0164EB00042B0D43EA0C335E1844EB20
:100830001C50DA465146E7FB0201C5F313044FEAA8
:100840000B3343EA14534FEA0432019C43EA060394
:10085000A4F10C040294009CCDE900B400F0C7F8A8
:1008600003B0BDE8F08F00200146F9E72DE9F04D17
:1008700081EA030404F0004B21F0004514464FF0D8
:10088000000A23F0004150EA050220D054EA010298
:100890001DD0C5F30A570246C5F31303C1F3130075
:1008A000C1F30A5640F4801543F48013A7EB060801
:1008B000101BD64608F2FD3873EB050002D308F191
:1008C000010801E092185B41B8F1000F03DA002043
:1008D0000146BDE8F08D00204FF4801106468446A5
:1008E0000EE0171B73EB050705D3121B63EB050323
:1008F00006434CEA010C49084FEA300092185B416C
:1009000050EA0107EDD152EA030012D082EA040056
:1009100083EA0501084305D0101BAB4106D2012232
:10092000002306E000224FF0004302E06FF00102D6
:1009300053101AEB06004CEB085110EB0A0041EB88
:100940000B01BDE8F04D00F043B8C1F30A52C1F30A
:10095000130140F2FF3341F480119A4202DA002081
:100960000146704740F233439A42A2F2334202DC1E
:100970005242FFF7C3BDFFF7B2BD000030B5041E01
:1009800071F1000404DB4FF00044404264EB0101CC
:10099000141E73F1000405DB1C464FF00043524265
:1009A00063EB0403994208BF904230BD064C074DEB
:1009B00006E0E06840F0010394E80700984710342F
:1009C000AC42F6D3FFF720FC348B0000548B0000C0
:1009D00010B5141E73F1000408DA401C41F1000147
:1009E00092185B411A4301D120F0010010BD2DE99E
:1009F000F04D92469B4611B1B1FA81F202E0B0FA95
:100A000080F220329046FFF76AFD04460F4640EA26
:100A10000A0041EA0B0153465A46084313D01146D7
:100A200053EA010019D0C8F140025046FFF766FDB5
:100A300005460E46504659464246FFF750FD0843CC
:100A400005D0012004E020463946BDE8F08D0020A5
:100A5000054346EAE0762C4337430A986305E40AE7
:100A6000A0EB08000022FD0A44EA47540A3002D5F0
:100A700000200146E9E7010510196941DDE9084553
:100A800000196941BDE8F04DA2E770B58D1810F866
:100A9000014B14F0030201D110F8012B231106D1F0
:100AA00010F8013B03E010F8016B01F8016B521ED6
:100AB000F9D1ABB110F8012B04F00C048A1A0C2CFC
:100AC00003D0A2EB84129B1C08E010F8014BA2EBB0
:100AD0000422F8E712F8014B01F8014B5B1EF9D52F
:100AE000A942D4D3002070BD10B504A002F07CFC54
:100AF000BDE8104006A002F077BC0000656E74658A
:100B00007220526177427567677946756E630A0095
:100B10006578697420526177427567677946756EAA
:100B2000630A000000F026B970B50E46144900EBC8
:100B3000400001EBC0051446E86A183520B10128D1
:100B40000FD0022805D113E0284600F047F9A04253
:100B500001D2002411E022463146284600F076F901
:100B60000BE0284600F03AF9A042F4D20446F2E73E
:100B70003146284600F03DF90446204670BD00008D
:100B80005818002030B54FF0805300229900D3F858
:100B90003001C1F80C21C1F8102164490A60644990
:100BA0000C6864490C606249091D0968614C241D88
:100BB00021605F4908310968241D21605C490C31BE
:100BC0000968241D21605A4910310968241D2160DB
:100BD000574914310C68574914310C605449183185
:100BE0000968544C2034216051491C310C6851492A
:100BF00024310C604E49203109684E4C2834216064
:100C00004B4924310968241D21604949283109686C
:100C1000241D216046492C310968241D2160444966
:100C200030310968434C403421604149343109680E
:100C3000241D21603E4938310968241D21603C494A
:100C40003C310968241D2160394940310968241D5F
:100C50002160082802D1D3F8341111B1082804D03A
:100C600006E036483449016005E0D3F8341111B18B
:100C7000082804D006E03249FB20086005E0D3F8DC
:100C8000341111B1082808D00EE02E4893F85832DC
:100C9000016863F30301016002E0D3F8341119B96C
:100CA00029484FF40071016028480168C90702D043
:100CB0006FF0010101602648016841F47001016094
:100CC000BFF34F8FBFF36F8F4FF01024D4F80002A3
:100CD000002803DBD4F80402002823DA1D4B01208E
:100CE00018601D4801680029FCD01225C4F8005284
:100CF00001680029FCD0C4F8045201680029FCD026
:100D00001A6001680029FCD0BFF34F8F10487C386F
:100D10000168124A01F4E06111430160BFF34F8F93
:100D200000BFFDE70F490E48086030BD38050040A0
:100D30000404001020C50040488103008C56004088
:100D400018F50040E40E00404096024000040040C8
:100D500088ED00E004E5014000E401400400FA05EC
:100D60000090D003201000200148006800470000D8
:100D70001400002010B5124C022000212061606197
:100D800010A0A06104F17800E0614FF40070A1624E
:100D9000206261620BA0E162A06404F51E70E06451
:100DA0001020A165C4E91401E16509A1E01DFFF768
:100DB00004FC08A12046FFF700FC2020A07110BD14
:100DC000581800205465726D696E616C0000000057
:100DD0005254540053454747455200000269C168C8
:100DE0008A4203D88068401A104400E0501A401E1E
:100DF00070472DE9F047C4681746894605464FF00D
:100E000000082869A04201D9061B02E0A968201A3F
:100E10000E1AA868761E001BB04200D80646BE42D5
:100E200000D33E466868324620444946FFF78CFBB3
:100E3000A868BF1B3444B044B144A04200D1002490
:100E4000EC60002FDDD14046BDE8F0872DE9F04190
:100E500004468846D4E90207C51BE1686068164667
:100E60000844B54206D94146FFF76EFBB819E06069
:100E7000BDE8F0812A464146FFF766FB761B08EB8A
:100E8000050132466068FFF75FFBE660F0E70000AF
:100E90007CB5044600201D46164600290BD0491E8D
:100EA000CDE90041044B6A462946304600F0C6FCB5
:100EB000009A002111707CBD6B1F000002E008C881
:100EC000121F08C1002AFAD170477047002001E0C4
:100ED00001C1121F002AFBD17047000070B50D46FA
:100EE000049E04466BB1100440EA052129430EB16B
:100EF000094800E0094801432046BDE8704003F07E
:100F0000FDBA1146284601F03BF801462046BDE8EF
:100F1000704003F0E3BA0000000040EB000010EB6B
:100F2000F0B401F2FF7240F6FD74C1F34A03A2422D
:100F300004D2F0BC43F4604103F0D0BA6FF07F42BA
:100F40000F4C0A44A24219D2CE0CCA0FC1F3093485
:100F50006FEA9141F54351405540920601F001017D
:100F600042EA044242EA413105F0010541EAC52165
:100F7000F0BC044A1943114303F0C0BAF0BC7047F7
:100F8000FDFFFF01008000F070B516460C460546D7
:100F900001F0F4F871B280B914F5807F0DDBFE2CFE
:100FA0000BDCC4F3470040EA012080B240F450411A
:100FB0002846BDE8704003F091BA1048104A20441A
:100FC000904219D2E60FC4F30533B606C4F380424B
:100FD00046EA8151C4F34A0041EA0341C4F3C044E4
:100FE00041EA423141EAC42101430648014328460F
:100FF000BDE8704003F082BA70BD0000FFFF0F0033
:10100000FDFF1F00008000F02DE9FC5F8146DDE957
:101010000D040C9E9A469346884610F00F0F65D13A
:101020000011002501270E2860D2DFE800F05F32B2
:1010300032320732404A5F5F32324A4004B3009591
:101040000023324659460C20019500F0A5FF0146C9
:10105000484603F053FA00950023524641460E20BD
:10106000019500F099FF0146484603F047FACDE9A3
:1010700000570C2200230E21104600F0FBFF2FE04A
:10108000CDE900570023324659460C2000F084FF7A
:1010900026E024B11A464146484600F029F802B03D
:1010A000324659464846BDE8F05F00F021B8314667
:1010B000484600F01DF8002C18D000234246514647
:1010C00009E032465946484600F012F8002C0DD08F
:1010D000002352464146CDE900570C2001F00AF8A2
:1010E00001464846BDE8FC5F03F008BABDE8FC9F36
:1010F000082906DA082A04DA41EAC20141F48541E6
:1011000009E0C1F3C003DB0101F0070143EAC202B9
:101110000A4342F48A4189B203F0E0B912F00F0F9A
:101120001CD112110E2A19D2DFE802F018090B0D9A
:1011300007070F11181815130F1101220CE00022D8
:101140000AE0082208E0022206E00B2204E00A225C
:1011500002E0092200E00322FFF716BF70470000FB
:10116000120430B442EA0131002B02D003DD1A46EA
:1011700003E00B4A0EE0C3F100024FF0010404EB60
:10118000E3734FF0040444EA430341EA032141EAD4
:101190000201044A30BC41EA020103F0AFB9000089
:1011A0000000D0F8000850F830B440F6FF741F2B50
:1011B00010DC13F11F0F0DDB08290BDA082A09DAFE
:1011C0009B0143EAC2020A4391B230BC41F4F041B0
:1011D00003F084B9120442EA0131FF2B14DC13F14D
:1011E000FF0F11DB002B01DD1A4600E05A420124FB
:1011F00004EBE373042444EA430343F0080341EAA5
:1012000003211143074A07E0A34209DC40F6FF72BD
:10121000D34205DB044A194330BC114303F06EB9D5
:1012200030BC7047000010F8000090F8F0B4002BBC
:1012300002D04FF0010401E04FF0000402DD4FF056
:10124000010501E04FF0000501DCC3F10003C3F329
:1012500087064FF0020303EBC40343EA85034FEA1A
:10126000435343EA024291F9013091F9001042EAF6
:10127000033242EA012141EA0601F0BC024A41EA96
:10128000020103F03BB90000000050E830B440F622
:10129000FF741F2B0DDC13F11F0F0ADBDB065B0D48
:1012A00043EAC2020A4391B230BC41F4084103F060
:1012B00015B9120442EA0131FF2B06DC13F1FF0FCE
:1012C00003DBDAB21143094A09E0A3420BDC40F622
:1012D000FF72D34207DBC3F30B021143044A30BC55
:1012E000114303F00BB930BC70470000000E30F81A
:1012F0000000B0F82DE9F0471546334A884681468C
:10130000971C01F06DFAAE010446202D34D294F9F9
:101310000020C5F3820142EA013197F9002005F06F
:1013200003004FEA022242EA001041EA0001274886
:1013300041EA0001484603F0E1F897F900206842CD
:10134000C0F38201120442EA013194F9002000F056
:10135000030041EA022141EA801194F901000143AE
:101360001B480143484603F0C9F894F9010046EAD6
:10137000C001014389B21DE007D194F9002094F91E
:101380000110484600F0A8F80CE094F90100A6F519
:10139000006694F9001046EAC000084381B248464E
:1013A00003F09CF894F9010044F2400141EAC001C5
:1013B000084381B2484603F091F822464146484628
:1013C000BDE8F04701F02CBADC87000000005FEABE
:1013D000100050EA2DE9F05F394D1346A5F11804CD
:1013E0008946834694F91B2093F9011001F0ECF92A
:1013F00006462A464946584601F0F2F905460020BD
:1014000040EA06482F4848F020010143584603F0BF
:1014100075F895F9000094F91A10000440EA0121CA
:10142000294F31433943584603F068F895F90100D4
:10143000264941EA0041584603F060F894F91A1031
:10144000DFF88CA058464AEA014103F057F894F9B6
:101450001A1048EA012040F020011E480143584676
:1014600003F04CF894F91A0095F9011040EA014193
:1014700047EA00200143584603F040F894F91A1057
:1014800058464AEA014103F039F895F9010094F908
:101490001A10000440EA012131433943584603F051
:1014A0002DF894F91A2099F90110584601F0A5F980
:1014B00099F900105846BDE8F05F0C2201F09DB983
:1014C000DC870000000CA0F100F000FA0CFC00FA30
:1014D0000C0C40EA0000C0F10D2A0ED00D290CD0F2
:1014E000C2F3C003DB0102F0070243EAC10111436A
:1014F00089B241F48C4102F0F1BF002343EA022299
:101500000A430249114302F0F9BF000000004FEA0C
:10151000F0B4002B02D04FF0010401E04FF00004C2
:1015200002DD4FF0010501E04FF0000501DCC3F1E1
:101530000003DEB24FEA01414FEA840341EA02317F
:1015400043EA450343F0080341EA032141EA060167
:10155000F0BC024A41EA020102F0D0BF000040F8AC
:1015600030B4002B02D04FF0010401E04FF0000432
:1015700002DD4FF0010501E04FF0000501DCC3F191
:1015800000034FEA046444EAC55444EA024291F974
:10159000014091F9001042EA043242EA0121C3F30A
:1015A0008703044A41EA030130BC41EA020102F028
:1015B000A5BF0000000040E82DE9F04107461C46A9
:1015C00016460D46B3F5805F07D3BDE8F0411A46D5
:1015D0004FF4C37116A001F007BF082D1CD2082ECE
:1015E0001ADA002E18DBB54207D1FF2C05DCD8B281
:1015F00040EA012040F4605008E0072C0CDC58075A
:10160000C00D40EAC200084340F4F05081B23846B1
:10161000BDE8F04102F062BF002322463146284671
:1016200000F080FD01463846BDE8F04102F066BF9B
:10163000496E76616C69646520696D6D2076616CB8
:1016400075652E204C696E653A25642056616C3AAA
:1016500025640A007CB50446069D4FF0000033EA7D
:10166000050603D00123CDE900031AE02B4206D082
:10167000009001900023084600F03CFD15E0082A88
:101680000DDA08290BDA900140EAC100084380B264
:1016900040F4D0512046BDE87C4002F01FBF0090CE
:1016A00001900023084600F051FD01462046BDE8A8
:1016B0007C4002F023BF00002DE9FF5F82B00021D3
:1016C000DDE90430020DDDF840B0034318D044F6E4
:1016D0001050A2F2FF3242431514119801281FD076
:1016E000A5EB0B00401C5FEA000A4FF000064E4FCE
:1016F000DFF83891B046504615D5CAF1000413E022
:10170000119801244AA3012801D16FEA0B01029824
:10171000119AC0E90031C0E9024206B0BDE8F09F6D
:10172000CBF10000DFE704460021404A491842EBB4
:101730000450CDE9001012E0E00707D032463B46E6
:1017400040464946FFF720F88046894632463B46E8
:1017500010461946FFF718F806460F466410002C8D
:10176000EAD1DDE90401DDE90023BAF1000F06DA70
:10177000FFF70AF842464B46FFF706F805E0FFF789
:1017800075F842464B46FFF771F804460E460022B4
:10179000284BFFF7F3F803D84FF0FF30014607E07E
:1017A0000022254B20463146FEF747FFFFF7CDF8D4
:1017B000102409E0002C0ADB0A220023FEF75EFE5B
:1017C000039B30321A55641E50EA0102F2D1641CA8
:1017D000039AC4F111031444119A012A03D001227F
:1017E00008430DD10AE0084304D000204FF0110B4C
:1017F000119072E7A3EB0B056D1E0DE05B4504DD58
:101800004FF0000205F1010504E003DA4FF0000299
:10181000A5F10105002AECD002981199C0E9023126
:10182000C0E9004579E70000000014400000F03FE7
:10183000300000000000F0430000E03F2DE9FF4FC2
:1018400095B09B468946064600250FE2252877D1AC
:1018500000242746F84A0121059400E0044316F8C5
:10186000013F203B01FA03F01042F7D130782A28DB
:1018700011D06FF02F033078A0F13002092A16D86A
:10188000059A44F0020402EB820203EB4202104488
:10189000761C0590EFE759F8042B0592002A03DA2D
:1018A000504244F40054059044F00204761C307811
:1018B0002E2816D116F8010F44F004042A280DD062
:1018C0006FF02F023078A0F13003092B09D807EB15
:1018D000870302EB4303C718761CF3E759F8047B30
:1018E000761C30786C280FD006DC4C2817D068287E
:1018F0000DD06A2814D104E0742810D07A280FD1B2
:101900000DE044F400140AE044F4801401E044F4CF
:1019100040147278824202D104F58014761C761C41
:10192000307866280BD013DC582877D009DC0028E3
:1019300075D04528F6D04628F4D047281AD19DE125
:1019400018E0632835D0642879D0652812D195E154
:10195000702873D008DC6728F1D069286FD06E2812
:101960000DD06F2806D1B5E073282CD0752875D01E
:10197000782874D05A46179990476D1C75E1C4F3C6
:101980000250022809D003280DD0D9F800100428ED
:101990000DD00D6009F1040967E1D9F80010EA17CC
:1019A000C1E90052F6E7D9F800100D80F2E70D709A
:1019B000F0E719F8041B8DF8001000208DF80100E5
:1019C000EA46012003E059F804AB4FF0FF3061070D
:1019D0004FF0000102D40DE008F101018846B94240
:1019E0000FDA8045F8DB1AF808100029F4D108E076
:1019F00008F1010188468142FADB1AF80810002933
:101A0000F6D105985B46A0EB080721463846179AA1
:101A100000F094FA284400EB080507E04DE029E1C6
:101A20000DE01AF8010B5A4617999047B8F10108D2
:101A3000F7D25B4621463846179A13E142E00A2264
:101A40000092C4F302524FF0000A022A08D059F85B
:101A500004CB032A4FEAEC710AD00DE029E02AE01A
:101A600009F1070121F00702F2E802C1914609E0FD
:101A70000FFA8CFC4FEAEC71042A03D14FFA8CFC6C
:101A80004FEAEC71002907DA0A460021DCF1000C6C
:101A900061EB02012D2202E0220504D52B228DF8F4
:101AA0000420012203E0E20701D02022F7E790465C
:101AB00059E00A2102E010220DE010214FF0000A47
:101AC00000910BE010224FF0000A44F004040827B4
:101AD000009203E008224FF0000A0092C4F3025281
:101AE000022A05D059F804CB0021032A08D009E0C6
:101AF00009F1070121F00702F2E802C1914605E071
:101B00001FFA8CFC042A01D10CF0FF0C4FF00008E6
:101B1000220728D5702806D0009B83F0100353EAD3
:101B20000A0305D00EE040228DF80420012208E0CF
:101B30005CEA010206D030228DF804208DF8050001
:101B400002229046009B83F0080353EA0A030AD15D
:101B50005CEA010201D1620705D530228DF804202C
:101B60004FF001087F1E582804D034A003900EA81F
:101B700002900DE036A0F9E753466046009AFEF762
:101B80007DFC84460398825C0298401E029002709D
:101B90005CEA0100F0D1029806A9081A00F1200AB7
:101BA000600702D524F4803400E00127574502DDA8
:101BB000A7EB0A0000E0002000EB0A010090059866
:101BC0004144401A0590E00306D45B462146179A2B
:101BD000059800F0B3F90544002706E001A85A462D
:101BE000C05D179990476D1C7F1C4745F6DBE003ED
:101BF0000CD55B462146179A059800F09FF90544DD
:101C000004E030205A46179990476D1C0099481EF1
:101C100000900029F5DC08E0029802995A46007805
:101C2000491C0291179990476D1CBAF10001AAF165
:101C3000010AF1DC65E1000009280100303132338E
:101C400034353637383961626364656600000000F8
:101C500030313233343536373839414243444546E2
:101C60000000000000F058F90544761C3078002888
:101C70007FF4ECAD19B02846BDE8F08F620700D4C0
:101C8000062709F1070222F0070CFCE80223E146CF
:101C900003F000485FEA080C02D00FF2702C0DE050
:101CA0005FEA045C02D50FF2682C07E05FEAC47CAF
:101CB00002D00FF2602C01E0AFF2700C4FF0FF3851
:101CC00023F00043CDF850C065280CD006DC452831
:101CD00009D046281DD047283DD13DE0662818D0C0
:101CE00067287ED138E00021112F01DB112000E0B0
:101CF000781CCDE9000106A90EA8FFF7DDFCDDE99F
:101D00000F010E9A03910021009207F1010A04913C
:101D10004DE04FF000400097CDE9011006A90EA854
:101D2000FFF7CAFCDDE90F0203920E9B1199002216
:101D3000DDF80CA00093049211B9791C00EB010AA4
:101D4000B7EB0A0004D4C0F1FF3007F1010A049098
:101D5000AAEB0700019044E0012F00DA01270021DF
:101D6000112F01DD112000E03846CDE9000106A960
:101D70000EA8FFF7A1FCDDE90F010E9A03910021E7
:101D800004910092BA4621070CD40399514500DA18
:101D90008A46BAF1010F05DD009AAAF10101515CF2
:101DA000302908D0B84202DA10F1040F06DA012116
:101DB000CDE9011015E0AAF10101E9E7002805DCF1
:101DC000049901440491AAEB000102E0411C514531
:101DD00000DD8A460499401A401C01904FF00040F3
:101DE0000290200704D40198504501DBCDF804800F
:101DF00000208DF84F0002980DF14F07B0F1004F11
:101E000025D02B200E9002984FF0020800280CDA03
:101E1000404202902D200E9007E00A210298FEF722
:101E2000F6FB3031029007F8011DB8F10001A8F16E
:101E30000108F2DC02980028EFD1791E0E98087094
:101E4000307800F0200040F0450007F8020D12A89D
:101E5000C01B00F107081498007800B1012000EBC6
:101E60000A01019801EBE07105984144401A401EB7
:101E70000590E00306D45B462146179A059800F0CA
:101E80005DF805441498007818B15A4617999047A0
:101E90006D1CE00324D55B462146179A059800F097
:101EA0004DF805441CE00498002807DBDDE9030138
:101EB000884203DD0098405C179901E017993020B3
:101EC0005A469047049805F10105401C049001987A
:101ED000401E019004D12E205A46179990476D1C40
:101EE000BAF10001AAF1010ADDDC05E017F8010BE7
:101EF0005A46179990476D1CB8F10001A8F10108E6
:101F0000F4DC5B462146179A0598ABE62D000000ED
:101F10002B000000200000002DE9F04104460025C0
:101F20001E461746880404D405E039462020B047F1
:101F30006D1C641EF9D52846BDE8F0812DE9F041FD
:101F4000044600251E469046C80301D5302700E010
:101F50002027880404D505E041463846B0476D1C6B
:101F6000641EF9D52846BDE8F0814A68002A06D0EB
:101F70000A68531C0B6010704868401E4860704728
:101F8000C0F3C002D20100F0070042EAC1010143E0
:101F900088B240F48840704770B5C3F38204DDE92D
:101FA0000456360546EA014141EA043103F00303D1
:101FB00041EA002040EA831040EA0510104340F057
:101FC0006B4070BD10B5C2F382041B0543EA0433B5
:101FD00002F0030243EA002040EA8210084301496C
:101FE000084310BD20004FEA1B0543EA014141EAC6
:101FF00000200249104308437047000000F040FAF7
:102000001B0543EA014141EA00200249104308430D
:102010007047000000F000FA10B5202A02D34FF0FC
:10202000FF3010BDC2F382041B0543EA043302F003
:10203000030243EA002040EA8210084301490843B2
:1020400010BD000010004FEA1B0543EA014141EAC0
:1020500000200249104308437047000000F020FAB6
:10206000090441EA00200249104308437047000078
:1020700000F000FB70B5202BDDE9045602D34FF0D1
:10208000FF3070BDC3F38204360546EA014141EAE0
:10209000043141EA002003F0030340EA831040EAE0
:1020A000051002491043084370BD0000000040EADB
:1020B000C0F38031C0F30C0040EA8130014908438D
:1020C0007047000000002DE930B5D5B2C2F30224FC
:1020D000C2F3C022920642EA035242EA014141EAB7
:1020E000043141EA002002492843084330BD000082
:1020F0000000C0F170B5C3F38204DDE90456360573
:1021000046EA014141EA043141EA002003F00303B9
:1021100040EA831040EA051001491043084370BDAE
:10212000000060EB10B5C2F3C024C2F30123A40683
:1021300044EA014141EA033141EA0020D2B20249B6
:102140001043084310BD00000000A0F270B5C3F3B7
:102150008204DDE90456360546EA014141EA0431CC
:1021600041EA002003F0030340EA831040EA05102F
:1021700001491043084370BD0000A0EB40681428DB
:1021800001DD0120704700207047000010B50446B3
:1021900006F038FA21680A88012A02D0022A06D0FD
:1021A00008E00648496842680A43426002E048681D
:1021B00000F020F90120207210BD0000641C0020F6
:1021C0002DE9F04107461748002500F114068469FF
:1021D000284609E03A68A1685268914201D1254633
:1021E00004E026466468401C002CF3D15DB9062843
:1021F00004DD0DA001F0F8F8354604E0102001F0F0
:10220000AFFA05467060002068603868406800F0EA
:10221000DBFFA86000F0ECFF2F60E8602846BDE817
:10222000F0810000641C00205761726E696E673A8D
:102230002064796E616D69632070617463682065E4
:10224000786365656420746865206D6178696D7573
:102250006D206E756D6265722836292E0A000000A9
:10226000034A0168936802464968184600F037BB84
:10227000641C00202DE9F0433C4F89B004463E78B1
:1022800018223B4901A8FEF75FF901A850F8260083
:1022900020F0030080460146204600F0B3FF03F023
:1022A00053FB0546334824F0010420F01F0007903B
:1022B00004F00302434621462FA001F095F823467F
:1022C000424607A93AA0009501F08EF8DFF8208178
:1022D000A00707D024F003027C78111D0020C1461E
:1022E000641E29E044F00101002097F801C00EE0CF
:1022F00008EB800293688B4202D09268A24205D11B
:1023000008EB8002916009B0BDE8F083401C844571
:10231000EEDC079840F82650387808EB8002916090
:10232000401C1FE009EB8003D3F808C0944502D19C
:10233000DB688B42E7D0401C8442F3DCD2E90034F6
:10234000079865F31F4340F82630230C1B0400EB6D
:10235000860043EA15434360387809EB80039A60AE
:10236000D960801C3870C0B2CDE70000410A00205F
:1023700088870000A71C0020696E73742069732091
:1023800068616C6620776F72643A20307825303847
:1023900078202564207472616D706F6C696E655F62
:1023A000616464723A203078253038780A00000081
:1023B0005B3078253038785D20667062206A756DF4
:1023C0007020746F3A2030782530387820696E7329
:1023D000743A20307825303878206A756D705F69DE
:1023E0006E73743A203078253038780A0000000087
:1023F000002000E070B51E4900231E4A0D784C1CD9
:102400002DB9237015680625657001250D70B0F192
:10241000005F05D318A000F0E7FF4FF0FF3070BD5C
:102420002178062900D323701B4991F8281019B18F
:10243000BDE87040FFF71EBF810701D4012100E015
:10244000022120F0030040EA817100206378491CDA
:1024500005E002EB8005AD688D42E0D0401C834270
:10246000F7DC207802EB80029160411C217070BD86
:10247000400A0020002000E043616E6E6F7420610E
:10248000646420627265616B706F696E7420696E3E
:102490002052414D2E0A0000881C002072B604F024
:1024A000EBF904F033F80028FBD111481149401A28
:1024B000C408012000EB04400FA104F045F91148C5
:1024C0000068C00700D000BE022000EB04400EA14F
:1024D00004F03AF9BFF34F8F0A48E43801680E4A16
:1024E00001F4E06111430160BFF34F8F00BFFDE7CE
:1024F0007C8B000000000000466174616C206572F6
:10250000726F7200F0ED00E053797374656D2072A4
:1025100065736574000000000400FA050EB5002123
:102520000091CDE901106A4644F20100FFF7B6FFC1
:102530000EBD10B58268C368934203D002F0B2FDAD
:10254000002010BD052010BD29B112B1531E134249
:1025500003D0092070470E2070470160838000215E
:102560008160C1600846704710B58268C3689A1AD6
:1025700083889A4203D802F09FFD002010BD0420FA
:1025800010BD000070B50A4E01460A48B478FFF746
:10259000D0FF05464CB10020B070711C0122C81D4F
:1025A00003F0E2FC08B1FFF7B9FF284670BD000058
:1025B000200000207C120020F0B5244E89B01F4678
:1025C0000D00044672603FD0A888296882B2204876
:1025D000FFF7BAFF002835D1A889A96882B21C4844
:1025E0001030FFF7B1FF00282CD12022194968468E
:1025F000FDF7AAFF60690690207C00B101208DF8EC
:1026000014008DF81C70607C00B10E208DF8150050
:10261000E0680290A06803902068019060680090D4
:102620000A480D4A6946083003F06AFC002809D1BF
:10263000B0702068401C05D004490122491CC81D07
:1026400003F092FC09B0F0BD0720FBE7200000205A
:102650007C120020B88600001582000010B50146EB
:102660001048FFF781FF040019D10F480F4A017885
:10267000515C19B1001D04F087FC02E00C3004F03D
:102680005FFB60B9084907480839FFF752FF30B9C6
:10269000054901220839044803F076FC0446204627
:1026A00010BD00008C120020280000200000002037
:1026B00000F002B800F008B872B602480168491C80
:1026C000016070471C00002003490868401E086034
:1026D00000D162B6704700001C00002070B50546AE
:1026E00008680C46411C04D003F021FE206803F06A
:1026F000B2FD6068411C02D0002103F09AFD2968F8
:10270000A069C1F82405607D217D2A680843C2F8CC
:102710006C05D4E900122868C0F81425C0F80C151F
:10272000207D012814D1A068411C02D0002103F0B3
:1027300080FDE068411C04D003F0F9FDE06803F07F
:102740008AFDD4E902122868C0F80825C0F81015DF
:1027500070BD70B5054608680C46411C04D003F0F6
:10276000F0FD206803F081FD6068411C02D000216B
:1027700003F068FD2968A069C1F82405607D217D0A
:102780002A680843C2F86C05D4E900122868C0F82A
:102790000C15C0F81425207D012814D1A068411C17
:1027A00002D0002103F04EFDE068411C04D003F08C
:1027B000C8FDE06803F059FDD4E902122868C0F8AA
:1027C0000825C0F8101570BD10B51446CA0F05D005
:1027D0000B460B222146FEF7C3FC2146084610BDDE
:1027E00010B591F901301446DA0F04D00B222146BE
:1027F000FEF71CFD2146084610BD30B41446CA0F32
:1028000005D022460B4630BC0B21FEF781BEA1420B
:1028100004D00A46214630BCFEF75EBE30BC70478D
:1028200070B5154691F9012004460E46D00F07D029
:1028300029462046BDE8704013460B22FEF790BEA5
:1028400095F901108A4202D0204601F04DFF96F919
:10285000002095F900108A4204D02046BDE870405F
:1028600001F042BF70BD10B50446406800F076FF2D
:10287000A06800F073FF2046BDE8104000F06EBF76
:1028800010B50A4604464188406800F086F8411CAD
:1028900003D0A16851F8200010BD002010BD002910
:1028A00002DB42888A4201DC00207047806850F8D1
:1028B0002100704770B505460C2000F051FF002143
:1028C000418004460580A800054600F049FF60608D
:1028D000284600F045FF01462046A16070BD2DE965
:1028E000F04790464288436804460E4612B10021E4
:1028F000154614E01960A168C1F800806088401C8A
:1029000060800020BDE8F087481900EBD0704010CF
:1029100053F82070B74201D2014600E00546481C3A
:10292000A842F1DB53F82500B04204D1A16840462B
:1029300041F82580E6E72088824212D3071D08214E
:1029400001EB80008246BA0001469146184600F02D
:102950000FFF60604A465146A06800F009FFA06082
:10296000278060886FF003030AE0626803EB800150
:10297000575842F82070A268515842F82010401E63
:10298000A842F2DC606840F82560A16841F8258023
:102990006088401C60802846B4E730B500230546B7
:1029A000491E0DE0581800EBD070401055F820403B
:1029B000944209D002D9A0F1010101E000F1010324
:1029C0008B42EFDD4FF0FF3030BD30B58079DDE96F
:1029D0000435069C70B101EB82002BB1994203D300
:1029E00003EB8502904205D9A14205D304F500749A
:1029F000A04201D8012030BD002030BD10B590F8B4
:102A0000304044B1406A50F8222050F82100C01AEA
:102A1000101A001F10BD002010BD00002DE9FC4160
:102A20000546C0074FF000060ED0104F00240122CB
:102A3000385D009600231146019603F0AFFB641C3D
:102A4000042CF4D300F01CF8A8070DD5074D002482
:102A50002D1D0022285D032300961146019603F0E8
:102A60009DFB641C042CF4D3BDE8FC819886000017
:102A70000249085C012103F06EBC0000988600004A
:102A800010B500242046FFF7F3FF641C042CF9D393
:102A900010BD00002DE9F0470546841C914688468C
:102AA00001270020FFF704FE1B4E3068C8F8000025
:102AB000D6E90001401AB16806F21C48081A0EE077
:102AC0000121404603F0B4F903F01AF801464046EC
:102AD00003F0AEF9D6E90001401AB168081A401CAB
:102AE0008442EDD897B1B9F1000F03D0052065F30A
:102AF000891002E0062065F39F50B26831681140EA
:102B000006EB8101C8603068204430600020FFF788
:102B1000D1FD3846BDE8F0873414002070B50D466D
:102B200004460A2902D10D21FFF7F8FFA0682268A8
:102B3000411CA1601554D4E90101814204D320460F
:102B4000BDE8704003F03DBA70BD0000034803C803
:102B5000814201D1012070470020704734140020C9
:102B60002DE9F04105460024D5E900761CE007EB8D
:102B7000C401284600F026F8011E95F8300006DD55
:102B8000641C80B9696A286941F824000BE018B90F
:102B90006A6A286942F82400002904DABDE8F04195
:102BA00005A000F021BC641CB442E0DB287E0028B4
:102BB00000D0EE61BDE8F0814552524F523A2025D7
:102BC000640A00002DE9FF5F05464878FC4B00F0E1
:102BD0000F02000903EB400603F1180000902C6877
:102BE00003EB42070C1B4FEAE40A0C78B1F90290A0
:102BF0004A686FEA040C00F1020B5FEA4C7C1BD0C0
:102C00004FF0000CCDF804C0DFF8B4C36B2C9CF976
:102C10001B8075D069DC3C2C39D039DC1D2C70D080
:102C20001DDC0F2C07D00FDC052C6BD007DC002C33
:102C300069D0042C68D1DFE04FF0010CE2E7072CEB
:102C400001D00C2C60D1D7E0A4F1140009285BD28C
:102C5000DFE800F0D257B1D2EFB1B1B1D2002D2CE4
:102C6000DDD00CDC252CDAD004DC1F2C01D0242C88
:102C70004AD1C1E0272C75D02C2C45D1BCE02F2C9B
:102C8000F9D0342C03D0352CC9D0372C3CD1D1E02D
:102C90005C2C0FD01CDC4C2C0CD00CDC442C09D050
:102CA00004DC3D2CBBD03F2C2ED1C3E0452CB6D04C
:102CB000472C29D1A0E0542C04D004DC4D2CAED0FC
:102CC0004F2C78D198E0552CA9D0572C73D193E094
:102CD000A4F15D000E286ED2DFE800F0136D8E6D5A
:102CE000F2F112B5136DCD6DF2F19F2C2ED02EDCCA
:102CF0007B2C8ED013DCA4F16C000F285BD204E097
:102D000001E101E1B9E114E155E0DFE800F075FD12
:102D100054AD54D9D8FC9CFD54C154D9D8000021DD
:102D2000872C6FD00ADCA4F17C000A2843D2DFE8AC
:102D300000F063EB42A842424242C0EC942C79D0AE
:102D4000952C75D0972C75D09C2C34D172E0BF2C6B
:102D500037D01ADCAF2C4FD00CDCA4F1A4000A2829
:102D600029D200E0D2E0DFE800F047CF2647262650
:102D7000262647CFA4F1B4000A281CD2DFE800F0D1
:102D800021C41B211B1B1B1B21C4CF2C72D00ADCAE
:102D9000A4F1C4000A280ED2DFE800F055B60D8673
:102DA0000D0D0D0D2EB6D42C71D0D52C87D0DC2C6A
:102DB000FAD0DD2C88D05246214682A000F014FBC8
:102DC000AFE114F0080010D00828F9D1012A06D08C
:102DD00033463A462846019901F0F8FFA1E13978D7
:102DE0000022284601F0AEFF9BE113463A462846F2
:102DF000019902F02DF894E114F0080003D008289E
:102E0000DED10BE05DE013465A462846019902F0F8
:102E10001FF804F0F0005B46009003E004F0F000BF
:102E2000334600903A462846019901F0BFFE78E10A
:102E300069E17FE090B20090234632463946284649
:102E400002F0DCF86DE11F2A03DD40F2EB5028624E
:102E50006EE1002AB4D097F9011004F0F00392B2A9
:102E6000284601F091FD5CE1324639462846FEF7DE
:102E7000B1FA56E112E092B239462846FEF73AFA24
:102E80004FE132463946284601F0F8FC49E14AE173
:102E900092B23946284601F095FC42E13246394665
:102EA000284601F095FB3CE13946284601F032FB0B
:102EB00037E104F0F00397F901100022D0E752E067
:102EC00041E0024639462846FFF78AFC044690F95D
:102ED0000100012300220146FFF7F6F801462846CB
:102EE00001F00CFB94F90000012300220146FFF7DA
:102EF000EBF80146284601F001FB224639462846F8
:102F0000FFF78EFC0DE14EE06AE0C2E014F008002D
:102F100002D008280DD107E013465A4628460199E9
:102F200001F096FF5A4600E032463946284601F045
:102F3000EDFBF6E0CB683946284601F0E5FE0120BE
:102F400004B0BDE8F09F424696F901102846FFF70D
:102F50003BFC024604F0180000904B4639462846D8
:102F600001F068FEDDE014F018000CD008280AD04B
:102F7000102808D018280BD113465A46012128469C
:102F800001F066FF04E09BF80110284601F0DAFE2C
:102F900004F01800009097F901104B465A46284655
:102FA00001F096FFBDE05A4631462846FFF718FC6F
:102FB000024604F01800009097F901104B46EEE726
:102FC000C4870000556E737570706F7274206F70D7
:102FD0003A2025782070633A2025640A000000001A
:102FE0005548210790F91A000FD5024696F90010AE
:102FF0002846FFF7E9FB03909BF9012096F90110A1
:103000002846FFF7E1FB804609E0B9F1000F33D015
:10301000134603905A460121284601F019FF39460C
:103020002846009AFFF7DCFB04F00701052914D0BD
:10303000002104F0F004CDF80080CDE9014190F9C1
:10304000012090F900102846039BFDF7DDFF0426C0
:103050002846FFF793F810B102E00121E9E70226C4
:103060000AEB0902334651462846FFF7C7FC0146E2
:1030700062B22846FEF752F853E0B9F1000F50D083
:103080000AEB0902022351462846FFF7B7FC014626
:1030900044E0A96A28489C1C51F8227003F10408F6
:1030A0009E1D00F1080A00F10A090246234601218B
:1030B000284601F08BFE434622460121284601F0B6
:1030C00085FE4946284601F0D5FE5146284601F0C6
:1030D000D1FE3146284601F0CDFE00983A464178AF
:1030E000284601F02FFE00984FF48F4190F901001F
:1030F00041EAC00081B2284601F0F0F928460F49A4
:1031000001F0FCF90DE06868401E504509D095F8C3
:10311000300018B1D5E90401091A091F2846FDF746
:10312000FFFE00200CE75246214605A000F05CF9A6
:103130004FF0FF3004E70000C4870000180D0DF2C7
:10314000544F444F206F703A2025782070633A2006
:1031500025640A0070B51B4C064604F1120544F6BE
:10316000F030FEF7A5FF0146304601F0C7F90B220B
:103170000D213046FEF7B0F921780022304601F0EB
:10318000E1FD94F9011050230D223046FEF714FAA8
:103190000D224FF4807311463046FEF70DFA234698
:1031A0002A460121304601F011FE94F90120002148
:1031B0003046FEF791F921783046BDE87040002294
:1031C00001F0C0BDC6870000810701D4012100E0E5
:1031D000022120F0030040EA8170401C034A810F65
:1031E0001040022901D140F002007047FCFFFF1F90
:1031F00020F001000188B1F5684F01D3001D704730
:10320000801C704721F0010120F00100081A001F06
:1032100030B5C20DC0F30061C0F30934C0F34A03F6
:103220006FEA90504840D24300F001054A4044EA1A
:103230008120D207910C41EAC521194340F4704026
:1032400041F4104141EA004030BD000010B586B0A5
:103250001A4A1B491BA000F0C7F80020FF2269464C
:103260000A54401C0428FBDB7F208DF80400052055
:1032700000220A54401C0A28FBDB0DF109000592CC
:10328000CDE90310002003F0C7FF05A903A800F053
:1032900073F90446002003F0B1FF15A0059900F072
:1032A000A3F821461BA000F09FF80CB11FA000E07E
:1032B00024A000F099F806B010BD00004D320000C7
:1032C00079350000616464722067726F756E642DD9
:1032D0007472757468206275673A30782530387872
:1032E00020746573743A307825303878200A0000ED
:1032F0004465636F646564204D515454207061636C
:103300006B6574206C656E67746820697320256432
:103310000A0000004275672066756E6374696F6EFF
:103320002072657475726E202564200069732073A5
:1033300074696C6C2076756C6E657261626C652167
:103340000A0A00006973206669786564210A000032
:103350000B4A30B41068C0F30311C0F3023041EAE5
:1033600000130020014603E002EB8004A160401C32
:103370009842F9D30348017030BC01F0A7BE0000A9
:10338000002000E0410A002070B50625094804F03D
:10339000DDFA094E002404EB440006EB80018A6844
:1033A00056F8201005A004F0D1FA641CAC42F2DB00
:1033B00070BD0000D0880000A000002072756E2053
:1033C00025643A2025730A00AFF3008000EE100A4E
:1033D0000448F8EE400A90ED030AB8EE401A80EE79
:1033E000810A7047440A00200FB408B503A8009072
:1033F0006946029802F064FB01B05DF814FB00001E
:103400001249134810B5C2060A6004210160104831
:10341000C0300068C0F3000020B1BDE810400DA02E
:10342000FFF7E2BF0A4CCC34206840F480302060C3
:1034300001F08EFE216816A0FFF7D6FF0448103871
:10344000FF2101604117016010BD00002CE000E089
:1034500030ED00E048616C74696E67204465627508
:103460006720456E61626C6564202D2043616E2784
:103470007420456E61626C65204D6F6E69746F7269
:10348000204D6F646520446562756721000000006F
:1034900064656275675F6D6F6E69746F725F696E88
:1034A00069742073657475702064686373723A2060
:1034B00025750A0070B504464068001F20F003051A
:1034C000284601F061FF064629460FA0FFF78CFF52
:1034D0004FF4803576B108222146304603F03EFF96
:1034E00001290AD002290BD025600FA0BDE8704049
:1034F000FFF77ABF256010A0F8E70020206070BDBC
:103500006168086012A0F1E774727920746F206717
:1035100065742070617463682061743A2030782586
:103520003038780A0000000046494C5445525F503C
:103530004153530A00000000446F206E6F742066F0
:10354000696E6420506174636820686572650A0062
:1035500046494C5445525F52454449524543540AEA
:103560000000000010B50021024802F06CFC80F35E
:10357000100010BD5018002070B50D460446FCF731
:103580005BFFB0F5803F0BD100221046531E2A602E
:1035900001E0042803D8D4E90016B14201D318464B
:1035A00070BD09782E6801F07F0191403144296097
:1035B0002168D21D401C4E1C26600978D2B2C0B2D0
:1035C0000906E6D402A02968FFF70EFF002070BDAF
:1035D00064756D6D79204D515454207061636B6535
:1035E00074206C656E6774683A30782530387820BE
:1035F0000A00000007494020C8600748016841F000
:1036000080710160054800214160016841F00101BD
:1036100001607047440A0020FCED00E0001000E06B
:10362000024A13680B441360FCF7D0BF141000204B
:10363000F0B514460A4687B001461D4601A800F0C1
:103640003DFF21A003F086FD002003F0E5FD2A46A2
:10365000214601A800F0C8F806460F46002003F0F6
:10366000CDFD01A801F044FE012003F0D5FD049A30
:10367000A9B22046904704460D46012003F0BEFD46
:1036800013A00499FFF7B0FE059802F047F82B4607
:103690003246394615A00094FFF7A6FE002003F03D
:1036A00081FD012003F07EFD01A802F03CF80446F4
:1036B00001F064FE211818A0FFF796FE1BA0FFF78B
:1036C00093FE07B0F0BD0000656270660000000068
:1036D0006A69745F66756E63206164647265737392
:1036E0003A203078253038780A000000496E746539
:1036F0007275707465723A204F703D256420526572
:10370000743D2564204A69743A204F703D25642039
:103710005265743D25640A006D656D2073697A6594
:103720003A2025642062797465730A0066696E69BF
:1037300073682D2D2D2D2D2D2D2D2D2D2D2D2D2D38
:103740002D2D2D2D2D2D2D2D2D2D2D2D2D2D2D2DA9
:103750002D2D2D2D2D2D2D2D2D2D0A0001F0A0BD4F
:1037600002490A6802440A6002F0BEBA141000203E
:1037700070B5044611480D46511B03681944016099
:1037800022B144B1AA420BD8204670BD204601F0B8
:1037900087FD002070BDBDE870401046FFF7E0BF18
:1037A0001046FFF7DDFF060006D02A462146FCF74B
:1037B000CBFE204601F074FD304670BD1410002091
:1037C00070B5044680681E460D4610B904F042FFED
:1037D000A0600C2D02D34FF0FF3070BDA0680068D0
:1037E00040F82560002070BD2DE9F74FC0B00025DE
:1037F00040989246894600683E9026A8CDE9281553
:10380000CDE93A052F460DF1180B26AE3E98294614
:1038100000EBC5046D1C2078ADB26C287ED062DC54
:103820003D287CD033DC1F287AD019DC142878D0CE
:103830000CDC072876D004DC042874D0052873D16A
:10384000EFE30C2871D00F28F9D123E215380928AD
:103850006AD2DFE800F0ED69ECEB696969DBEA0048
:103860002F2876D00ADCA0F124000A28F0D2DFE865
:1038700000F0E9E75BE65B5B5B5BF1E4342869D071
:10388000352868D0372867D03C28D8D1FDE05D289E
:1038900071D01CDC4D286FD00CDC45286DD004DCC9
:1038A0003F286BD04428CAD118E1472867D04C285C
:1038B000C5D11BE1552871D004DC4F286FD05428A6
:1038C000BDD11DE157286BD05C28B8D120E15F380D
:1038D0000D28BDD2DFE800F0F628F5F4F3F2F12868
:1038E000F028EFEEED00A42872D036DC7C2870D0F2
:1038F0000DDCA0F16D000F28AAD2DFE800F0EE1574
:10390000ED15ECEBEAE9E815E715E6E5E4009428A7
:1039100072D015DC842870D00DDC07E00AE1EEE3FC
:10392000D6E16BE0A9E155E0A4E05BE07D2877D02B
:103930007F2884D180E2852873D0872884D188E2CB
:1039400095286FD097286ED09C286DD09F289CD149
:1039500099E2DFE18FE0F6E3F2E1BF2869D020DCF5
:10396000B42867D011DCAC2865D009DCA52863D069
:10397000A7288AD19AE2E7E3E7E3E7E3E4E1F8E1A5
:10398000AD2871D0AF288ED19DE2B5286DD0B72873
:103990006CD0BC286BD0BD2885D1F5E3F5E3F5E10B
:1039A00003E2CF2870D00ADCA0F1C4000A2890D22C
:1039B000DFE800F0E9E860E760606060E6E5D428F1
:1039C00074D0D52873D0DC2872D0DD28B1D1FBE3C8
:1039D000F8E0C1E06078626800F00F0056F830103F
:1039E000114439E1617801F00F00090956F83020DF
:1039F00056F8311011442FE1C6E0B7E060786268F4
:103A000000F00F0056F83010891A25E1607800F0B8
:103A10000F01000956F8312056F83000121A00E163
:103A2000F7E3F7E3F7E320E2B9E0E1E3D3E340E1D2
:103A3000F2E35FE2DAE0CDE0EFE3EFE30AE059E141
:103A4000EDE3FFE76078626800F00F0056F8301091
:103A5000514301E1607800F00F01000956F8312070
:103A600056F830004243DCE0F5E3F5E33AE2C0E02B
:103A7000C0E9002706E26078626800F00F0056F89F
:103A80003010B1FBF2F1E7E044E26178080906EB9F
:103A9000C002D2E90032134370D001F00F0156F892
:103AA000300056F83120B2FBF0F2BAE0BCE0F2E3AD
:103AB000BCE04CE3D3E264E297E1EDE332E025E3DE
:103AC000B0E254E280E100E38EE231E2A6E1F0E30D
:103AD0003AE05CE3DEE26EE292E1EBE3607862689A
:103AE00000F00F0056F830101143B5E0617801F096
:103AF0000F00090956F8302056F831100A4372E0D9
:103B00006078626800F00F0056F830101140A3E0B2
:103B1000607800F00F01000956F8312056F83000A7
:103B200002407EE06078227900F00F0056F83010F5
:103B3000914091E0617801F00F00090956F83020BA
:103B400016F831108A404EE06078227900F00F00BC
:103B500056F83010D1407FE0607800F00F01000986
:103B600056F8312016F83000C2405AE0607800F074
:103B70000F0006EBC000016849426FE089E0D6E320
:103B800046E0BCE1F9E33BE06078626800F00F00DA
:103B900056F83010B1FBF2F302FB13115CE06078D1
:103BA000010906EBC102D2E90032134371D000F0E3
:103BB0000F0056F8311056F83020B2FBF1F301FB3C
:103BC000132149E06078626800F00F0056F8301069
:103BD000514041E0617801F00F00090956F83020AA
:103BE00056F831104A4006EBC00041E76078616842
:103BF00003E06078010956F8311000F00F002BE067
:103C00006078227900F00F0056F83010114123E05F
:103C1000607800F00F01000956F8312016F83000E6
:103C2000024106EBC10023E760682BE160681028C1
:103C300004D020280AD04028F7D112E0607800F0A4
:103C40000F0036F8301089B249BA05E0607800F00C
:103C50000F0056F8301009BA06EBC000C0E9001793
:103C600010E1607800F00F0006EBC000D0E9001210
:103C700009BA12BAC0E9002104E16078616800F075
:103C80000F0006EBC000CC17D0E900325918624192
:103C90001BE0D0E0617801F00F00090906EBC000DD
:103CA00006EBC101D0E90032D1E900411B194A41BC
:103CB0001DE06078616800F00F0006EBC000CC17D3
:103CC000D0E90032591A62EB0402C0E90012E9E3BC
:103CD000617801F00F00090906EBC00006EBC10195
:103CE000D0E90032D1E900411B1B62EB0102C0E9BF
:103CF0000032D7E3607800F00F0006EBC000D0E997
:103D000000236168A2FB01C8CC1703FB018102FB01
:103D1000041112E0617801F00F0006EBC00080464C
:103D20000CC8080906EBC001D1E90001A2FB00C4E0
:103D300003FB004002FB01014046C0E900C1B1E3C2
:103D400062686078D31709E06078010906EBC10169
:103D5000D1E900210A436ED06268D31700F00F004A
:103D600006EBC004D4E90001FCF788FBC4E90001BC
:103D700098E3607800F00F0006EBC0016068D1E9BD
:103D800000C34CEA000C43EAE0731AE0617801F0EA
:103D90000F0006EBC0000909D0E9002306EBC101C2
:103DA000D1E9004122430B431CE0607800F00F0092
:103DB00006EBC0016068D1E900C30CEA000C03EA1D
:103DC000E073C1E900C36DE3617801F00F0006EB19
:103DD000C0000909D0E9002306EBC101D1E9004187
:103DE00022400B40C0E900235CE3607800F00F0044
:103DF00006EBC002904603CA6268FCF770FB17E04E
:103E0000617801F00F0006EBC0040909D4E9000C49
:103E100056F831206146FCF762FBA7E7607800F0B6
:103E20000F0006EBC002904603CA6268FCF766FB0F
:103E3000C8E9000136E3A3E0627802F00F0012093E
:103E400006EBC00456F83220D4E90001FCF756FB1B
:103E50008CE76078002100F00F0006EBC000D0E98D
:103E60000023524261EB030104E76078626800F0CE
:103E70000F0006EBC004D317D4E90001FCF7FEFAEB
:103E8000C4E900230EE36078010906EBC101D1E922
:103E9000002352EA030173D000F00F0006EBC001CB
:103EA0000C4603C9FCF7EAFA0CC4FBE2607800F0A8
:103EB0000F0006EBC0016068D1E900C38CEA000C7A
:103EC00083EAE0737DE7617801F00F0006EBC00044
:103ED0000909D0E9002306EBC101D1E900416240A4
:103EE0004B407FE76178606801F00F01C21706EB75
:103EF000C10193E06078010906EBC10130E0607810
:103F000000F00F0006EBC002904603CA6268FCF79F
:103F100005FB8DE7617801F00F0006EBC00409098D
:103F2000D4E9000C56F831206146FCF7F7FA1DE79A
:103F30008DE8020E6078FEA300094FF0080256F8E3
:103F40003010B4F9020009184098FEF73EFD002831
:103F500016D06078010956F83120B4F902105118D2
:103F600000F00F00D1E9002106EBC00082E6607886
:103F7000010956F83120B4F90210511809683CE6DD
:103F800068E08DE8020E6078E9A300094FF00202B4
:103F900056F83010B4F9020009184098FEF715FDE4
:103FA000002857D06078010956F83130B4F9021072
:103FB0005918098821E68DE8020E6078DCA3000913
:103FC0004FF0010256F83010B4F902000918409879
:103FD000FEF7FBFCF0B36078010956F83120B4F924
:103FE00002105118097808E68DE8020E6078D2A315
:103FF00000094FF0080256F83010B4F90200091811
:104000004098FEF7E2FC28B36178606801F00F0188
:10401000B4F9023056F83110C217C918C1E90002CC
:1040200040E265E18DE8020E6078C3A300094FF01D
:10403000040256F83010B4F9020009184098FEF74F
:10404000C4FC38B1607800F00F0056F83010B4F9B5
:10405000020000E052E008186268026022E28DE887
:10406000020E6078B4A300094FF0020256F8301037
:10407000B4F9020009184098FEF7A7FCF0B3607885
:10408000B4F9021000F00F00A28856F83000401872
:10409000028007E28DE8020E6078A7A300094FF0C6
:1040A000010256F83010B4F9020009184098FEF7E2
:1040B0008CFC18B36078B4F9021000F00F0022797C
:1040C00056F8300040180270ECE18DE8020E60787E
:1040D000B4F90210000998A356F830004FF0080216
:1040E00041184098FEF771FC40B16078010906EB79
:1040F000C10100F00F00D1E9002101E046E0C1E07C
:1041000056F83030B4F902001818B3E58DE8020E05
:104110006078B4F90210000987A356F830004FF018
:10412000040241184098FEF750FC78B3607801090A
:1041300000F00F0056F8311056F83020B4F90200A4
:1041400010180160AEE191E018E1F9E0E1E08DE8DE
:10415000020E6078B4F90210000977A356F8300017
:104160004FF0020241184098FEF72FFC70B16078C2
:10417000010900F00F0036F8311056F83020B4F97C
:104180000200101801808DE1B3E0E8E01DE08DE849
:10419000020E6078B4F90210000967A356F83000E7
:1041A0004FF0010241184098FEF70FFC68B16078AB
:1041B000010900F00F0016F8311056F83020B4F95C
:1041C0000200101801706DE140E14FF0FF30014630
:1041D00043B0BDE8F08F3E98616800EBC5006D1CF0
:1041E00042686078ADB200F00F0006EBC0006CE5ED
:1041F000607800F00F01000906EBC10106EBC0007A
:10420000D1E90021D0E900305A4041400A436FD043
:1042100048E1E7E02DE14EE102E03EE01DE00DE087
:10422000607800F00F0006EBC000D0E90012606873
:10423000414082EAE07211435AD033E1607861680C
:1042400000F00F0006EBC000D0E90020891A77EBE0
:1042500000004DD326E12EE03DE06078010906EB39
:10426000C10100F00F00D1E900212CE06078616805
:1042700000F00F0006EBC000D0E90020511AB84151
:1042800036D20FE1607800F00F0106EBC1010009A2
:10429000D1E9002135E0CCE081E0607800F00F004A
:1042A00006EBC000D0E900216068101AB9411FD3A5
:1042B000F8E08AE080E0607800F00F0106EBC101D1
:1042C0000009D1E9002106EBC000D0E90030D21A84
:1042D00081410DD3E6E06078616800F00F0006EBE5
:1042E000C000D0E90020891A77EB000000D2D9E0A5
:1042F00081E06078010906EBC10100F00F00D1E90F
:10430000002106EBC000D0E90030D21A814172D200
:10431000C8E0607800F00F0006EBC000D0E9002391
:104320006068024003EAE0731A4364D1BAE070E0C7
:104330006C6F61640000000073746F7265000000B0
:10434000607800F00F01000906EBC10106EBC00028
:10435000D1E90021D0E900301A4001401CE060782A
:1043600000F00F0006EBC000D0E900126068414089
:1043700082EAE072114378D194E03DE0607800F089
:104380000F01000906EBC10106EBC000D1E90021D5
:10439000D0E900305A4041400A4366D182E061785A
:1043A000606801F00F0106EBC101C217D1E90031CD
:1043B000C01A8A4159DB75E06078010906EBC1013A
:1043C00000F00F00D1E900212BE0607800F00F0031
:1043D00006EBC000D0E900216068C317101A9941AC
:1043E00043DA5FE0607800F00F0106EBC1010009DD
:1043F000D1E9002132E038E0607800F00F0006EBF0
:10440000C000D0E900216068C317101A99412CDB65
:1044100048E0607800F00F0106EBC1010009D1E926
:10442000002106EBC000D0E90030D21A81411CDB2C
:1044300038E06178606801F00F0106EBC101C21736
:10444000D1E90031C01A8A410FDA2BE06078010906
:1044500006EBC10100F00F00D1E9002106EBC0001E
:10446000D0E90030D21A81411CDB6088284485B233
:1044700018E0DDE93001CDE90401DDE92E01CDE9E7
:104480000201DDE92C01CDE90001409861680DF1E0
:10449000A0088068006850F8214098E80F00A04705
:1044A000CDE92601B5F5A26F02DC00287FF4AEA9A4
:1044B000002001468CE6DDE9260189E670B50D464F
:1044C000164604461821FCF758F8C6F3CC002560C0
:1044D000A0802046BDE8704000F08BBF13B50446B5
:1044E00090F8300001A9022220B12369A068184485
:1044F000FCF72AF82069801C20611CBD13B5044616
:10450000BDF80610FFF7EAFFBDF804102046FFF7DC
:10451000E5FF1CBD2DE9FC4115462C4A0F4680469F
:10452000961CFEF75DF90446F5B3202D23D294F9CD
:10453000011096F901004FF001032A46FDF76CFDCA
:1045400001464046FFF7DAFF01210020CDE90001D6
:10455000C5F1200394F9002096F9011094F90100A7
:10456000FDF788FD01464046FFF7C8FF94F90000BB
:1045700001232A461BE007D194F9012094F9001089
:104580004046FCF7A9FF0CE094F9001094F90100F3
:104590000123A5F12002FDF715FD01464046FFF776
:1045A000ADFF94F9000000E008E001231F2201465E
:1045B000FDF708FD01464046FFF7A0FF02B0224686
:1045C00039464046BDE8F041FEF72AB9DC870000D5
:1045D0002DE9FC47434C1346A4F118050E468246CC
:1045E00095F91B2093F90110FEF7EEF8814622465B
:1045F00031465046FEF7F4F804460123202249468E
:104600000C20FDF761FD01465046FFF777FF95F955
:104610001A00012320224946FDF784FD0146504639
:10462000FFF76CFF94F9011001234A460E20FDF7B5
:104630000BFD01465046FFF761FF94F9000095F924
:104640001A2000230146FDF7DBFC01465046FFF728
:1046500055FF4FF000080127CDE900870E2194F99E
:10466000002043460846FDF705FD01465046FFF78A
:1046700045FF94F9000095F91A2000230146FDF743
:10468000B3FC01465046FFF739FF4BF658715046D0
:10469000FFF724FFCDE900870E2194F900200023C5
:1046A0000846FDF7E7FC01465046FFF727FF94F95F
:1046B000001001234A460C20FDF796FC01465046A7
:1046C000FFF71CFF96F901100E225046FEF795F8F1
:1046D00096F9001002B05046BDE8F0470C22FEF7F4
:1046E0008CB80000DC87000070B50446064815460B
:1046F00090F918202046FEF767F802462946204622
:10470000BDE87040FEF779B8C48700002DE9F0419C
:1047100090462A4A0E460746951CFEF761F8044665
:104720002A4641463846FEF75BF8054690F90020D8
:1047300094F901100C20FDF793FC01463846FFF771
:10474000DDFE95F9012094F900100E20FDF788FC9C
:1047500001463846FFF7D2FE0C210E20FDF710FC73
:1047600001463846FFF7BAFE94F9010094F90010AB
:10477000000440F4404095F9012040EA012110482E
:10478000114301433846FFF7B9FE94F900000E21AA
:10479000FDF7F6FB01463846FFF7A0FE96F901103B
:1047A0000C223846FEF729F894F9002096F90010FB
:1047B0003846BDE8F041FEF720B80000DC87000075
:1047C0000000A0FB2DE9FC4115462B4A0F46804610
:1047D000961CFEF705F8044655B3202D29D294F90E
:1047E000011096F901004FF000032A46FDF714FC72
:1047F00001464046FFF782FE002000900190C5F17F
:10480000200394F9002096F9011094F90100FDF7B6
:1048100031FC01464046FFF771FE94F90000002389
:104820002A460146FDF7F8FB01464046FFF766FEC3
:104830001AE007D194F9012094F900104046FCF7E2
:104840004BFE0CE094F9001094F901000023A5F14F
:104850002002FDF7E1FB01464046FFF74FFE2178BD
:104860000022404600F06EFA02B022463946404629
:10487000BDE8F041FDF7D4BFDC8700002DE9FC471F
:10488000404C1346A4F118050E46824695F91B20AC
:1048900093F90110FDF798FF8146224631465046B4
:1048A000FDF79EFF04460123202249460C20FDF718
:1048B0000BFC01465046FFF721FE95F91A00012333
:1048C00020224946FDF72EFC01465046FFF716FE12
:1048D00094F9011001234A460E20FDF7B5FB01466D
:1048E0005046FFF70BFE94F9000001230C2201460D
:1048F000FDF786FB01465046FFF700FE4FF000082B
:104900000127CDE900870E2194F90020434608468F
:10491000FDF7B0FB01465046FFF7F0FD94F90000AB
:1049200095F91A2001230146FDF78EFB01465046FA
:10493000FFF7E4FDCDE900870E2194F90020002364
:104940000846FDF797FB01465046FFF7D7FD94F95F
:10495000001001234A460C20FDF776FB0146504625
:10496000FFF7CCFD96F901100E225046FDF745FFEA
:1049700096F9001002B05046BDE8F0470C22FDF752
:104980003CBF0000DC8700002DE9F04180461A485A
:1049900017461D4690F918200E464046FDF714FFB5
:1049A0000446B801602D06D0702D08D0802D1CD093
:1049B000C02D0DD113E040EAC400204304E040EADA
:1049C000C400204340F4006081B24046FFF786FDFA
:1049D000224631464046BDE8F041FDF70EBF40EAB1
:1049E000C400204340F48050EEE744EAC40044F29F
:1049F00040210843E8E70000C48700002DE9FC4798
:104A00009946674C1346DDE90A788A46064694F9CA
:104A100019201946FDF7D8FE054694F9182051468D
:104A20003046FDF7D1FE044618F00F0F49D14FEA8A
:104A3000281000210D2844D2DFE800F0070F604362
:104A4000172D778A43434B439D004B462A46214608
:104A500030460097FCF742FA33E04B462A4621469F
:104A600030460097FCF7F6FD2BE020462A46082C3E
:104A70000ADA082A08DA04F0070005F0070141EA1B
:104A8000001040F4864146E0009101910023214648
:104A9000FDF7F0FA81E03046082C09DA082D07DA34
:104AA00044EAC50189B241F48041FFF717FD08E0EF
:104AB00041EA044141EA0421294341F06A41FFF7F8
:104AC0001DFD02B0224651463046BDE8F047FDF7D5
:104AD00094BE681E072808D2002C06DD082C04DAD4
:104AE00044EAC50044F2400113E041EA054040EACF
:104AF000042040F0300121432A4813E0681E0728B3
:104B00000BD2002C09DD082C07DA44EAC50044F278
:104B10004031084381B23046C7E7280440EA042107
:104B20002148214301433046C9E7681E072808D2BF
:104B3000002C06DD082C04DA44EAC50040F481406C
:104B4000E8E7214600232A460846FDF759FA24E003
:104B5000681E072808D2002C06DD082C04DA44EA77
:104B6000C50044F2C001D4E7214600232A46084686
:104B7000FDF76AFA11E0681E072808D2002C06DD4E
:104B8000082C04DA44EAC50040F48240C2E721461A
:104B900000232A460846FDF727FA0146C3E700002E
:104BA000C4870000000080EA00F000FB2DE9FC5FF4
:104BB00092461F4A884699468346961C51460C9D4C
:104BC000FDF70EFE00270446B8F1000F17D032465D
:104BD00049465846FDF704FECDE90075064690F9B2
:104BE000012094F9011001235846FFF707FF012027
:104BF000CDE9000596F9002094F900100BE096F934
:104C0000012099F901105846FDF7DEFDCDE9007548
:104C100094F90110024601235846FFF7EFFE02B057
:104C2000224651465846BDE8F05FFDF7F9BD000049
:104C3000DC8700002DE9F84F824691F90100314DE3
:104C4000DDF828901F4616468846C00F01D02C4636
:104C500000E044464946184600F0E8FCB0B194F93B
:104C60000100B04207D195F9002031465046FFF7C8
:104C70003BFD95F900605FEA090029D008281FD0A4
:104C8000102815D0B9F1180F35D125E029783A460A
:104C9000504600F057F800200090034695F90010A8
:104CA00032465046FCF71AF995F900600027E2E712
:104CB00094F901103B4632465046FCF775FA1AE06B
:104CC00094F901103B4632465046FCF7DFFA12E0F9
:104CD00094F901103B460AE094F901103B46324634
:104CE0005046FCF73DFA94F900103F1D3BB23246A6
:104CF0005046FCF735FA224641465046BDE8F84F8B
:104D0000FDF78EBDDC8700002DE9F041074691F9E3
:104D100001000B4C1E460D46C00F00D10C46384614
:104D2000617800F00FF821783246384600F00AF832
:104D3000224629463846BDE8F041FDF771BD000026
:104D4000DC87000070B5064614460D46FF2A0BD8D6
:104D5000082D09D242EA012080B240F400513046C9
:104D6000BDE87040FFF7BABBA2B2C2F3C021100B7E
:104D7000C2F30223890641EA004040EA033040EAD8
:104D80000521D2B20F48114301433046FFF7B6FB6D
:104D9000B4F5803F15D3200C020BC0F3C023C0F341
:104DA00002219B0643EA024242EA0131C0B241EAD3
:104DB00005210143044801433046BDE87040FFF738
:104DC0009DBB70BD000040F20000C0F270B51446FB
:104DD0000A0093F901101D4606460FD0C80F13D0E4
:104DE00094F90120D20F0FD0184D0B460B22294603
:104DF0003046FCF71BFA94F9013013E094F90120D6
:104E0000BDE87040FFF770BC38B10B462146304614
:104E1000BDE870400B22FCF709BA94F90120D00FCD
:104E200007D0134629463046BDE870400B22FCF7F8
:104E300097BB3046FCF750FB94F9002095F9001021
:104E40003046BDE87040FCF747BB0000DC8700003F
:104E500030B4154641B11A004FF0000300D55B1E77
:104E6000294630BCFFF750BF517830BC1A46FFF7D7
:104E700069BF000070B50446144AFDF7B1FC90F913
:104E80000120012390F9001003FA02F58B401D4325
:104E9000A8B20E2901D008290FDA0E2A01D0082A5B
:104EA0000BDAC0F38031C0B240EA012040F4344153
:104EB0002046BDE87040FFF711BBFDF7F9F8014649
:104EC0002046BDE87040FFF719BB0000DE870000F8
:104ED0002DE9F843464C15461E4694F919208146A3
:104EE0001834DDF82080FDF76FFC07464146304658
:104EF00000F09CFB80B9217832464846FFF722FF3C
:104F000000200090034694F900103A464846FBF70B
:104F1000E5FF94F9007000265FEA080062D00828D7
:104F200038D0102814D0B8F1180F5FD195F90110BE
:104F300033463A464846FCF7EBFA95F90010361D21
:104F400033B201B03A464846BDE8F043FCF7E0BA58
:104F500095F90120002E02D04FF0010001E04FF042
:104F6000000002DD4FF0010101E04FF0000101DC23
:104F7000C6F100064FEA800040EA41004FEA0241D4
:104F800040F0070041EA073141EA002141EA060109
:104F9000184820E095F90120002E02D04FF00100C2
:104FA00001E04FF0000002DD4FF0010101E04FF0A1
:104FB000000101DCC6F100064FEA800040EA410032
:104FC0004FEA024140F0070041EA073141EA00217F
:104FD000094841EA060141EA00014846BDE8F843B4
:104FE000FFF78CBA95F901103346AAE7BDE8F883BC
:104FF000C4870000000800F8000820F82DE9F047F9
:10500000244C1746884694F91B201E46824691F987
:1050100001101A34DDF82090FDF7D6FB054616F096
:10502000080028D008281DD097F90140C6F30310C6
:10503000032828D0184844EA054101435046FFF7A9
:105040005DFA280440EA05211448214301435046F3
:10505000FFF754FA98F901102A465046BDE8F04788
:10506000FDF7CBBB94F9002097F901105046FDF7EE
:10507000ABFB0446DAE794F900404A46E1B25046F9
:10508000FFF760FED2E7280440EA052121430448E7
:10509000DCE70000C4870000F0FCB0FB10C000FBA0
:1050A000F0F0B0FB826883881A4003689A5C0A704B
:1050B0008168491C81607047C26883881A40036810
:1050C0009954C168491CC1607047000003480168D9
:1050D00021F00301891C016070470000002000E0FE
:1050E0002DE9F843164E06EB8005D5F808804046BA
:1050F00000E02046FEF77CF804468007F9D144F032
:105100000100F061A86820F00100A8600D4820F0BF
:105110000100C01C20F003012046FEF773F80A4985
:1051200021F01F0700F010FC7861F0690090AB6877
:10513000224641460548FEF757F9BDE8F8830000CE
:10514000002000E007040000A71C0020F0890000F8
:105150000248016841F0030101607047002000E04F
:1051600070B50C4CE5690CA02946FEF73DF900220C
:1051700004EB8203986818B1986840F001009860C9
:10518000521C052AF4DBE06920F00100E0612846AA
:1051900070BD0000002000E06670625F656E6162B5
:1051A0006C655F63616C6C6261636B3A203078257B
:1051B0003038780A000000002DE9F04117481949FD
:1051C00020F0010516480C3120F0010645F00100E1
:1051D000144F886031462846FEF714F8804612487E
:1051E00020F01F04404600F0AFFBE0603246294645
:1051F0000EA0FEF7F9F8404600F0A6FB02460A4969
:1052000014A0FEF7F1F8E26821461CA0FEF7ECF8C6
:105210007C6003203860BDE8F0810000E90A0000EE
:105220003D030000002000E0881C002062756767D5
:10523000795F616464723A2030782530387820666E
:10524000697865645F616464723A2030782530382B
:10525000780A0000414444523A20307825303878AA
:105260002065786365707465642076616C75653A55
:10527000203078253038780A0000000072656D61B2
:10528000703A2030782530387820696E7374206148
:105290006464723A203078253038780A00000000C3
:1052A00010B5002821D0114B0022001F196803E01F
:1052B000814203D80A4649680029F9D152B11368DE
:1052C000841A9C4204D1006818441060104602E021
:1052D000506000E0186039B102680B1A934203D1A4
:1052E0000B681A4402604968416010BD2410002018
:1052F00010B5044600698EB008B100F00FFAA0881E
:1053000000F0F2F9206120680090A0880190002050
:1053100004900890A06800680A906846216900F02F
:1053200005FA684600F09CF92069006840F0010029
:10533000E060BFF34F8FBFF36F8F684600F0B4F9A2
:105340000EB010BD0148406870470000001000E03A
:105350000949CA6830EA02020CD1896908E08A6802
:10536000824204D10A68127A0AB108687047496813
:105370000029F4D100207047641C00200148006817
:105380007047000014100020084910B54A6830EA40
:10539000020208D18A6801461046FDF771FA10B181
:1053A000017A002900D1002010BD0000641C0020FB
:1053B000007C09680007800E0E39814201D3142851
:1053C00002D24FF0FF3070470020704770B506469C
:1053D0000D461820FEF7C4F9040008D0C5F3CC0030
:1053E0002660A080204600F004F8204670BD002012
:1053F00070BD10B5044603F02DF9A0602046BDE84D
:10540000104002F037B9000010B50B4C207800288E
:1054100010D1012109A0FDF7E7FF24210C48FBF77B
:10542000ACF80420FDF746FA0949886003F0EAF871
:105430000120207010BD0000E8000020696E697432
:105440005F70617463685F7379733A2025640A0042
:10545000641C00202DE9FC5F0E008346DDE90C474B
:10546000C6F1000098469146824600D408460125C0
:1054700002E090FBF9F06D1C4845FADAA84500D926
:10548000454624B1002E01DB780700D5641EB8071D
:1054900002D5B8F1000F0AD0F80708D13CB1A542F7
:1054A00005D220215846641EFDF738FBF6E7002E92
:1054B00002DA56462D2102E0780703D52B21584603
:1054C000FDF72CFB07F0030002280BD1B8F1000F09
:1054D00008D13CB1A54205D230215846641EFDF7E3
:1054E0001DFBF6E7CDE9004743464A46314658469C
:1054F00003F032F8BDE8FC9F70B50D460446006825
:105500004FF4887101F0BAFA4FF49071206801F0FD
:10551000B5FA4FF49271206801F0B0FA4FF4A2711D
:10552000206801F0ABFA4FF4AC71206801F0A6FAE4
:1055300020681149C0F804132068690740F3073058
:10554000090E002806DA00F00F0000F1E02080F8D4
:10555000141D03E000F1E02080F800142068012110
:1055600040F3073000F01F0291404009800000F135
:10557000E020C0F8001170BD100342000246002078
:105580001268530713D502F00300012802D0022845
:105590000CD105E0C2F383100B68801C184404E0B2
:1055A0000223086803EB9252104408600120704700
:1055B0002DE9FF4190460446DDE90E50DDE90C621D
:1055C0001946DDE90A7303900096CDE901253A46B4
:1055D0004046A047CDE900653B464246214602A031
:1055E000FDF702FFBDE8FF8177616E7420746F20C4
:1055F00063616C6C20633A2066756E633A3078257F
:1056000030387820617267303A25642061726731E2
:105610003A256420617267323A25642061726733EB
:105620003A25640A00000000FDF7DEBE002231B119
:10563000082907D0102902D0182907D104E040F624
:10564000FF7203E0FF2201E040F6FB72514281420B
:1056500003DC904201DC012070470020704700000D
:1056600070B500250561044680F83050FDF772FDE5
:105670002046FDF775FA2069C4E90450012084F83A
:1056800030002046FDF766FD2046FDF769FA0D2241
:105690000B212046FBF720FF2046BDE87040014962
:1056A000FEF72CBFF08BBDE870B5054609A0FDF7ED
:1056B0009BFE002405E0A868015D09A0FDF794FEAB
:1056C000641C2869A042F6DCBDE8704003A0FDF729
:1056D0008BBE00000A4465636F64653A0A000000EF
:1056E000253032780000000010B50B4C4FF40061FB
:1056F000A4F54060C4E9000100F50060A060A0F5D9
:105700000060FAF73AFF4FF48061A4F58060FAF781
:1057100034FF204610BD0000AC290020002141606C
:10572000016081607047808880007047C1620A68AC
:1057300022F00302826089684162704770B50646B4
:105740008269416916A0FDF74FFE214C204DCC3CEB
:1057500020682068C0F340012068C0F3000071B1E8
:10576000304601F025FE002818D1286840F480203A
:10577000286002202060FFF7A9FC16A00AE000289C
:105780000CD0286820F48020286001202060FFF7DA
:10579000DFFC15A0BDE87040FDF726BE70BD00001F
:1057A00064656275675F6D6F6E69746F725F686163
:1057B0006E646C65725F63206C723A3078253038A5
:1057C000782070633A3078253038780A000000007D
:1057D000FCED00E069735F626B70745F6462675F29
:1057E0006576740A0000000069735F68616C745F1D
:1057F0006462675F6576740A000000002DE9F04777
:1058000004462648894600EB8106B06820F0010076
:105810008046FFF79DFD05001BD0012001F0FCFC38
:1058200010222146284601F099FD07460D46012029
:1058300001F0E4FC3A46294619A0FDF7D5FD7DB1FB
:10584000012D1CD0022D26D0A26929461C48FDF747
:10585000CBFD41461BA0FDF7C7FD6069BDE8F087A1
:105860006369B16842461DA0FDF7BEFD4846FFF7DB
:1058700037FC616925A0FDF7B7FDB068EEE7A369C5
:105880006269394626A0FDF7AFFD276061691FA058
:10589000FDF7AAFDDDE73846E0E70000002000E064
:1058A00072756E5F656270665F66696C7465726E54
:1058B000207265733A2025752025750A00000000C6
:1058C000A88900006C656176655F6670625F6270D2
:1058D0006B743A203078253038780A0046494C54A9
:1058E0004552205041535320616464723A30782508
:1058F00030387820696E73743A30782530387820E3
:105900006C723A3078253038780A00007365745F1D
:1059100072657475726E3A203078253038780A00D6
:1059200066696C74657220616E642072657475724C
:105930006E3A20257520307825303878203078254B
:105940003038780A000000004FEA3040704700000D
:105950002DE9F04103250446032804DD02F094F804
:1059600029461DA033E0244E0125307860B9082176
:105970000120FDF755FE70600C210120FDF750FE5F
:10598000B0603570FFF740FD21461CA0FDF72CFDEF
:1059900019480C3000EB041470680027058047801C
:1059A00061684160B16808604D6825B9D4E90201B9
:1059B000FFF70CFD0546D4E902122846FEF77EFDEE
:1059C0002F75B068456000F037F8216812A0BDE877
:1059D000F041FDF709BD00007061746368206964DF
:1059E0002073686F756C64206C65737320746861D4
:1059F0006E2025640A0000006C0D00207374617233
:105A00007420746F206C6F61642070617463683AF5
:105A10002025640A000000006C6F616420666978CC
:105A200065642070617463682025732073756363F7
:105A3000657373210A00000070B501680546088887
:105A4000012805D0022824D112480122846907E0E8
:105A50002846FCF705FC17E02068A84208D06468D7
:105A6000002CF9D122B12846FCF7AAFB044606E037
:105A70004868FDF7A9FBA060FDF7BAFBE060D4E938
:105A8000022105A0FDF7B0FC2846BDE87040FCF7F8
:105A90007DBB70BD641C002064796E616D696320FC
:105AA00070617463683A2070633D307825303878CF
:105AB00020696E73743D3078253038780A00000014
:105AC00070B50C4605464FF480710C48FAF755FD49
:105AD0002A46FF2109482368FBF7DAF9074C08E05A
